:100000000C942A000C9447000C9447000C94470071
:100010000C9447000C9447000C9447000C94470044
:100020000C9447000C9447000C9447000C94470034
:100030000C9447000C9447000C9447000C94470024
:100040000C94CD010C9447000C9447000C9447008D
:100050000C94470011241FBECFE5D8E0DEBFCDBF12
:1000600010E0A0E6B0E0E2E0FAE002C005900D92F8
:10007000A438B107D9F720E0A4E8B0E001C01D9290
:10008000A139B207E1F70E9426020C94FF040C94F8
:10009000000085BB939A89EF90E00197F1F700C0CB
:1000A0000000939889EF90E00197F1F700C00000FD
:1000B00008959598949881E00E94490008958FEFE3
:1000C00084BB15BA81B3886381BB82B3877C82BB52
:1000D00088E30E9449000E9459008CE00E94490078
:1000E00086E00E9449000895959A94980E944900DC
:1000F0000895CF93DF93EC018881882331F0219616
:100100000E94740089918111FBCFDF91CF910895F6
:1001100020E03AE0DC010E9481042FEF33E040E070
:1001200050E00E946204C90108952F923F924F92BD
:100130005F926F927F928F929F92AF92BF92CF9277
:10014000DF92EF92FF920F931F93CF93DF93CDB780
:10015000DEB72C970FB6F894DEBF0FBECDBF5C01A3
:100160003B011A014901072E000C880B990B0E94D4
:1001700052036B017C01B401092C000C880B990B14
:100180000E9452036D837E838F839887C501BB0CC9
:10019000AA0BBB0B89879A87AB87BC8723014DC00D
:1001A000C201820D931D99230CF401963C017594B4
:1001B0006794B301072C000C880B990B0E94520323
:1001C0006B017C015401A00EB11EBB201CF49FEFFB
:1001D000A91AB90AB594A794B5010B2C000C880B89
:1001E000990B0E9452036D837E838F839887A701AA
:1001F000960169817A818B819C810E940204181684
:10020000BCF0A701960169817A818B819C810E9453
:10021000A302882384F0A701960169817A818B81EA
:100220009C810E94A302811126C02A2D9B2D25C0EE
:100230004501230102C08501130169857A858B85FB
:100240009C850E94520369837A838B839C839B01E4
:10025000AC01C701B6010E9436020E94B9040B9797
:100260000CF09ECF6D817E818F8198850E941A034C
:10027000262F972F02C028EE93E0822F2C960FB6E0
:10028000F894DEBF0FBECDBFDF91CF911F910F91CC
:10029000FF90EF90DF90CF90BF90AF909F908F90A6
:1002A0007F906F905F904F903F902F900895CF92E6
:1002B000DF92EF92FF926C01990FEE08FF08C701E1
:1002C000B6010E94520320E030E04AE754E40E9465
:1002D000A8029B01AC0166E474E98EEE9FE30E94E4
:1002E000360222EF30E342E856E30E94A80220EAF9
:1002F0003BE046E05AE40E9437020E940D0428EBDE
:100300003EE349EB54E40E9436020E941A03CB01FB
:10031000FF90EF90DF90CF9008950F931F93DC0133
:1003200011972091620030916300A217B30784F007
:10033000E0E6F0E021E030E046815781A417B50700
:100340004CF02F5F3F4F349628303105A9F702C09B
:1003500020E030E06130E1F4D901AA0FBB1FAA0F01
:10036000BB1FA05ABF4F0D911C911197220F331F35
:10037000220F331FF901E45AFF4F20813181129679
:100380004D915C911397628173810E94950002C028
:100390000E9457011F910F9108951F920F920FB65F
:1003A0000F9211242F933F934F935F936F937F93FB
:1003B0008F939F93AF93BF93EF93FF9394B19093D9
:1003C000840085B1292F229526952695237090E0EB
:1003D000880F991F880F991F822B90938600809316
:1003E00085000E948800909386008093850060E0DD
:1003F0000E948D0190938600809385004AE050E032
:1004000067E870E00E94BF04369AFF91EF91BF91B8
:10041000AF919F918F917F916F915F914F913F919C
:100420002F910F900FBE0F901F90189585E083BFFE
:1004300012BE1ABA8FEF8BBB17B887B1806C87B921
:100440003D9A86B18C6F86B910BE08950E9416023F
:100450000E945F00789482B7813FE8F30E945900C0
:1004600087E890E00E94790012BEF5CF5058BB2774
:10047000AA270E944E020C94C8030E94BA0338F0C7
:100480000E94C10320F039F49F3F19F426F40C9424
:10049000B7030EF4E095E7FB0C94B103E92F0E943B
:1004A000D90358F3BA17620773078407950720F03A
:1004B00079F4A6F50C94FB030EF4E0950B2EBA2FFD
:1004C000A02D0B01B90190010C01CA01A00111245A
:1004D000FF27591B99F0593F50F4503E68F11A1606
:1004E000F040A22F232F342F4427585FF3CF469597
:1004F00037952795A795F0405395C9F77EF41F16B9
:10050000BA0B620B730B840BBAF09150A1F0FF0F82
:10051000BB1F661F771F881FC2F70EC0BA0F621F6E
:10052000731F841F48F4879577956795B795F7955E
:100530009E3F08F0B0CF9395880F08F09927EE0FF3
:100540009795879508950E948D0308F481E008959A
:100550000E94BC020C94C8030E94C10358F00E9480
:10056000BA0340F029F45F3F29F00C94B103511114
:100570000C94FC030C94B7030E94D90368F39923ED
:10058000B1F3552391F3951B550BBB27AA2762178F
:100590007307840738F09F5F5F4F220F331F441F9C
:1005A000AA1FA9F335D00E2E3AF0E0E832D09150D0
:1005B0005040E695001CCAF72BD0FE2F29D0660FBD
:1005C000771F881FBB1F261737074807AB07B0E800
:1005D00009F0BB0B802DBF01FF2793585F4F3AF006
:1005E0009E3F510578F00C94B1030C94FC035F3FDF
:1005F000E4F3983ED4F3869577956795B795F7958C
:100600009F5FC9F7880F911D9695879597F9089573
:10061000E1E0660F771F881FBB1F6217730784070F
:10062000BA0720F0621B730B840BBA0BEE1F88F71E
:10063000E09508950E9421036894B1110C94FC0385
:1006400008950E94E10388F09F5798F0B92F9927E9
:10065000B751B0F0E1F0660F771F881F991F1AF0AD
:10066000BA95C9F714C0B13091F00E94FB03B1E014
:1006700008950C94FB03672F782F8827B85F39F013
:10068000B93FCCF3869577956795B395D9F73EF446
:1006900090958095709561957F4F8F4F9F4F0895EE
:1006A000E89409C097FB3EF490958095709561950C
:1006B0007F4F8F4F9F4F9923A9F0F92F96E9BB27C2
:1006C0009395F695879577956795B795F111F8CF3E
:1006D000FAF4BB0F11F460FF1BC06F5F7F4F8F4FA9
:1006E0009F4F16C0882311F096E911C0772321F09F
:1006F0009EE8872F762F05C0662371F096E8862F37
:1007000070E060E02AF09A95660F771F881FDAF78D
:10071000880F9695879597F90895990F0008550FBA
:10072000AA0BE0E8FEEF16161706E807F907C0F077
:1007300012161306E407F50798F0621B730B840B7F
:10074000950B39F40A2661F0232B242B252B21F459
:1007500008950A2609F4A140A6958FEF811D811DF9
:10076000089597F99F6780E870E060E008959FEF33
:1007700080EC089500240A94161617061806090638
:10078000089500240A941216130614060506089507
:10079000092E0394000C11F4882352F0BB0F40F48F
:1007A000BF2B11F460FF04C06F5F7F4F8F4F9F4FCF
:1007B000089557FD9058440F551F59F05F3F71F051
:1007C0004795880F97FB991F61F09F3F79F08795B8
:1007D0000895121613061406551FF2CF4695F1DF41
:1007E00008C0161617061806991FF1CF86957105D1
:1007F000610508940895E894BB2766277727CB0105
:1008000097F908950E948D0308F48FEF089519F465
:1008100016F40C94B7030C944D040E94E103B8F352
:100820009923C9F3B6F39F57550B87FF0E945B04CA
:100830000024A0E640EA900180585695979528F448
:10084000805C660F771F881F20F026173707480740
:1008500030F4621B730B840B202931294A2BA69597
:1008600017940794202531254A2758F7660F771FDC
:10087000881F20F026173707480730F4620B730BE8
:10088000840B200D311D411DA09581F7B901842FE6
:100890009158880F9695879508959F3F31F0915014
:1008A00020F4879577956795B795880F911D969554
:1008B000879597F9089591505040660F771F881FCC
:1008C000D2F70895052E97FB1EF400940E94790438
:1008D00057FD07D00E94880407FC03D04EF40C9407
:1008E000790450954095309521953F4F4F4F5F4F7C
:1008F000089590958095709561957F4F8F4F9F4F8C
:1009000008950E94AA04B7FF0895821B930B0895CF
:10091000A1E21A2EAA1BBB1BFD010DC0AA1FBB1F03
:10092000EE1FFF1FA217B307E407F50720F0A21B75
:10093000B30BE40BF50B661F771F881F991F1A94E2
:1009400069F760957095809590959B01AC01BD010C
:10095000CF010895A29FB001B39FC001A39F700D66
:10096000811D1124911DB29F700D811D1124911DB7
:10097000089597FF03C09195819591090895453297
:10098000510520F4423010F00C94CA04FB0110828F
:10099000CB010895BB274A3031F4992322F4BDE2FC
:1009A000909581959F4F0C94D604BB27FB0155274A
:1009B000AA27880F991FAA1FA41710F0A41B8395BC
:1009C0005051B9F7A05DAA3308F0A95DA193009733
:1009D00079F7B111B1931192CB010C94EF04DC01C2
:1009E000FC01672F71917723E1F7329704C07C9166
:1009F0006D9370836291AE17BF07C8F30895F894A2
:020A0000FFCF26
:100A020082002F016400A302500097031E00EB0531
:100A12001900260600004807E2FF9D08D8FF0E09CC
:040A2200C9FFB5094A
:00000001FF
